:020000040800F2
:100000003805002001010008471E0008F31C000805
:10001000451E0008390800082924000800000000D7
:100020000000000000000000000000006B1E00083F
:100030003B08000800000000691E00086D1E000853
:100040001B0100081B0100081B0100081B01000820
:100050001B0100081B0100081B0100081B01000810
:100060001B0100081B0100081B0100081B01000800
:100070001B0100081B0100081B0100081B010008F0
:100080001B0100081B0100081B0100081B010008E0
:100090001B0100081B0100081B0100081B010008D0
:1000A0001B0100081B0100081B0100081B010008C0
:1000B000191F00081B0100081B0100081B01000894
:1000C0001B0100081B0100081B0100081B010008A0
:1000D0001B0100081B0100081B0100081B01000890
:1000E0001B0100081B0100081B010008DFF80CD0F1
:1000F00000F010FB00480047312D000838050020B3
:100100000648804706480047FEE7FEE7FEE7FEE7B1
:10011000FEE7FEE7FEE7FEE7FEE7FEE7D11E00088A
:10012000ED000008202A04DB203A21FA02F0002129
:10013000704721FA02F3D040C2F1200291400843F7
:1001400019467047D2B201E000F8012B491EFBD2DC
:1001500070470022F6E710B513460A4604461946D2
:10016000FFF7F0FF204610BD421C10F8011B0029CC
:10017000FBD1801A70472DE9FE4F81EA030404F099
:10018000004421F0004100944FF0000B23F00043A5
:1001900050EA01045ED052EA03045BD0C3F30A5470
:1001A000C1F30A552C44A4F2F3340194A0FB025489
:1001B000C1F3130141F48011C3F3130343F480131B
:1001C00001FB024400FB034E840A970A44EA81546F
:1001D00047EA8357A4FB076802958D0A05FB07854C
:1001E0004FEA932C04FB0C542705029D4FEA065856
:1001F00047EA1637B5EB08056EEB070C870E920E33
:1002000047EA811742EA8312A7FB0201B6EB0B0112
:1002100064EB00042B0D43EA0C335E1844EB1C50D6
:10022000DA465146E7FB0201C5F313044FEA0B33EC
:1002300043EA14534FEA0432019C43EA0603A4F153
:100240000C040294009CCDE900B400F03EF903B028
:10025000BDE8F08F00200146F9E72DE9F04D81EA75
:10026000030404F0004B21F0004514464FF0000A4F
:1002700023F0004150EA050220D054EA01021DD0CB
:10028000C5F30A570246C5F31303C1F31300C1F3C4
:100290000A5640F4801543F48013A7EB0608101BA0
:1002A000D64608F2FD3873EB050002D308F10108C9
:1002B00001E092185B41B8F1000F03DA002001461B
:1002C000BDE8F08D00204FF48011064684460EE014
:1002D000171B73EB050705D3121B63EB05030643DE
:1002E0004CEA010C49084FEA300092185B4150EA91
:1002F0000107EDD152EA030012D082EA040083EA3A
:100300000501084305D0101BAB4106D20122002392
:1003100006E000224FF0004302E06FF001025310AC
:100320001AEB06004CEB085110EB0A0041EB0B01F5
:10033000BDE8F04D00F0BAB80EB540F2334102917D
:100340000021CDE900110A460B4600F0BEF803B0CB
:1003500000BD00F0004230F000400AD0C10D01F5B0
:100360006071C0F3160042EA0151C2084007114310
:10037000704700200146704701F0004330B421F07F
:10038000004150EA010206D00A0DA2F56072C1F3E5
:100390001301002A02DC30BC00207047440F44EAFD
:1003A000C104C100E01830BC00EBC25000F047B8F7
:1003B00030B50B46014600202022012409E021FA35
:1003C00002F59D4205D303FA02F5491B04FA02F532
:1003D0002844151EA2F10102F1DC30BD2DE9F05FC9
:1003E0000546002092469B468846064681464024A4
:1003F0001BE02846414647462246FFF793FE5346F8
:100400005A46C01A914110D311461846224600F0B0
:1004100093F92D1A67EB01084F462246012000216F
:1004200000F08AF917EB00094E41201EA4F10104E7
:10043000DFDC484631462A464346BDE8F09F0029A6
:10044000A8BF7047401C490008BF20F0010070475A
:1004500010B4B0FA80FC00FA0CF050EA010404BFBA
:1004600010BC704749B1CCF1200421FA04F411FA10
:100470000CF118BF012121430843A3EB0C01CB1D54
:100480004FEA00614FEA102042BF002010BC7047C5
:1004900000EBC35010440029A4BF10BC7047401C9F
:1004A000490008BF20F0010010BC704710B5141EB1
:1004B00073F1000408DA401C41F1000192185B411D
:1004C0001A4301D120F0010010BD2DE9F04D9246F4
:1004D0009B4611B1B1FA81F202E0B0FA80F220320B
:1004E000904600F029F904460F4640EA0A0041EA26
:1004F0000B0153465A46084313D0114653EA0100F4
:1005000019D0C8F140025046FFF70CFE05460E46D2
:1005100050465946424600F00FF9084305D00120E5
:1005200004E020463946BDE8F08D0020054346EA48
:10053000E0762C4337430A986305E40AA0EB0800F1
:100540000022FD0A44EA47540A3002D50020014641
:10055000E9E7010510196941DDE90845001969411C
:10056000BDE8F04DA2E72DE9FE4F804681EA030089
:10057000C00F0C46009021F0004123F00045B8EB7D
:100580000200A94105D24046214690461C460B4632
:10059000024623F00040104347D0270DC7F30A005E
:1005A000C3F30A510290401A019040286BDAC3F35A
:1005B000130040F4801B0098924620B10023D2EB38
:1005C000030A63EB0B0B01985946C0F140025046F9
:1005D00000F0B2F806460D4650465946019A00F022
:1005E000BAF810EB08006141002487EA115284EA4E
:1005F000E7731A4340D0009A62B3019A012A4FEA86
:10060000075215DC001B61EB02014FF0004202EAC9
:100610000752CDE90042001C41F5801132462B46BD
:10062000FFF753FF03B0BDE8F08F40462146F9E7DE
:10063000001B61EB0201001C41F5801300185B41B7
:100640002018A2F5001747EB030140EAD570B61950
:100650006D4111E06D084FEA360645EAC0754FEA74
:100660000752001B61EB0201001C41F58011490893
:100670004FEA30000019514132462B4603B0BDE825
:10068000F04FFFF713BF0098012240000023D0EB8A
:10069000020263EBE073009821464FEAE074B8EB86
:1006A000000061EB0401E9E783F000435BE781F0C0
:1006B000004158E7C1F30A52C1F3130140F2FF337E
:1006C00041F480119A4202DA00200146704740F25C
:1006D00033439A42A2F2334202DC5242FFF722BD78
:1006E00000F02AB830B5041E71F1000404DB4FF0AD
:1006F0000044404264EB0101141E73F1000405DB69
:100700001C464FF00043524263EB0403994208BF7A
:10071000904230BD064C074D06E0E06840F0010312
:1007200094E8070098471034AC42F6D3FFF7E2FC98
:10073000C42E0008E42E0008202A04DB203A00FA28
:1007400002F1002070479140C2F1200320FA03F328
:10075000194390407047202A06DBCB17203A41FA14
:1007600002F043EAE07306E041FA02F3D040C2F13E
:1007700020029140084319467047000070B50446B6
:1007800000688168C943C9071CD1816821F0010153
:10079000816000F0DFFA05460FE000BF00F0DAFAF2
:1007A000401B022809D9A06A40F01000A062E06A4C
:1007B00040F00100E062012070BD20688068C04305
:1007C000C007EBD0002070BDF8B5002604460096A7
:1007D00000688168C943C90728D0816841F00101D8
:1007E0008160134813490068B0FBF1F000E0401E3F
:1007F00000900028FBD100F0ADFA054611E000BFE3
:1008000000F0A8FA401B02280BD9A06A40F01000A3
:10081000A062E06A40F00100E06284F824600120F8
:10082000F8BD20688068C043C007E9D10020F8BD4A
:100830002400002040420F00FEE77047F8B5002476
:10084000009490F824202546012A12D0012280F835
:1008500024204A681F23072A0DD20668776B521E90
:1008600002EB820293409F430B6893401F437763E0
:1008700019E00220F8BD06680D2A0AD2376BD21F94
:1008800002EB820293409F430B6893401F43376300
:1008900009E0F76A0D3A02EB820293409F430B682E
:1008A00093401F43F7620A68072306680A2A0AD39F
:1008B000F7680A3A02EB420293409F438B689340E9
:1008C0001F43F76008E0376902EB420293409F4301
:1008D0008B6893401F4337610A68102A01D0112AA0
:1008E00020D1124B02689A4217D193681B0219D487
:1008F000936843F4000393600968102912D10C49EE
:100900000C4A0968B1FBF2F101EB8101490000E0FA
:10091000491E00910029FBD104E0816A41F02001C9
:100920008162012480F824502046F8BD0024014053
:100930002400002040420F000068C06C7047000097
:100940002DE9F0414FF0000704003D467ED0A06A3B
:10095000002628B9E66284F82460204600F07EF87C
:100960002046FFF70BFFA16AC90600D420B1A06A98
:1009700040F01000A06269E0A16A21F4885141F0C2
:100980000201A1626268E169E3680A4347EA430140
:100990000A43A1684FF48077B94209D0012907D0F2
:1009A0005FF00001D4F814C0BCF1010F02D00AE0DE
:1009B0003946F7E7F3B1A36A43F02003A362E36A81
:1009C00043F00103E3622368D3F804C02CF4694CBC
:1009D0004CEA010CC3F804C021688B68DFF870C0D2
:1009E00003EA0C0313438B60A168B9420BD00129C1
:1009F00009D00CE0DFF85CC0A3690CEB43330B4378
:100A000043F40061DFE7218A0D05A5F58015216813
:100A1000CB6A23F470032B43CB62216889680E4BA9
:100A20001940914208D1E662A16A21F0020141F029
:100A30000101A162BDE8F081A06A20F0020040F04F
:100A40001000A062E06A40F00100E0620120F1E7DE
:100A5000FDF7E1FF00E0FFFFFE0E1FFF00B585B0D0
:100A60000021009101910291039100680E49884292
:100A700018D10E48816941F400718161816901F4E6
:100A800000710491816941F00401816180696946C6
:100A900000F004000490042000900320019004481A
:100AA00000F07AF805B000BD0024014000100240BB
:100AB0000008014070B5044690F8240001280DD0CC
:100AC000012084F824002046FFF77EFE02004FF04C
:100AD000000005D084F82400104670BD022070BDCF
:100AE000A16A40F20123994341F48071A1621F4D34
:100AF00023681F49AB4218D10E6816F4702F14D02A
:100B0000A66A46F48016A6620E68760505D5A66A22
:100B100026F4005646F48056A662A66AF6040AD564
:100B2000E66A26F00606E66206E0A66A26F4801665
:100B3000A6625E68E9E7E06284F824006FF00200D4
:100B4000186020688368C3F34243072B05D1A8428D
:100B500008D1096811F4702F04D0816841F4801124
:100B60008160B9E7816841F4A001F9E700280140FC
:100B70000424014070B5044600F0ECF80546601C02
:100B800002D004480078044400F0E4F8401BA0427E
:100B9000FAD370BD180000202DE9F84FDFF890A1BE
:100BA00000220AF1040B144601274FF00F090BF144
:100BB000040E00BF0B6807FA04F52B40AB4274D15A
:100BC000DFF870C14E68A6EB0C0866452BD00DDC33
:100BD000032E34D005DC36B3012E19D0022E2FD1CE
:100BE0001BE0112E16D0122E2AD119E0B8F5881F5D
:100BF00019D006DCB8F5803F15D0B8F5801F1FD19D
:100C000011E0B8F5001F0ED0B8F5041F18D10AE0A6
:100C1000CA6815E0CA68121D12E0CA6808320FE0FF
:100C2000CA680C320CE08A682AB1012A4FF0080227
:100C300003D0456104E0042202E0056100E00022E7
:100C4000FF2B01D8064601E000F104064FEA8405B7
:100C500001D9A5F12005D6F800C009FA05F82CEA5B
:100C6000080C02FA05F54CEA050CC6F800C04D6800
:100C7000ED0057D5304DAE6946F00106AE61AD6965
:100C800024F0030605F0010500952C4D06EB050C3C
:100C9000DCF80850A6074FEA167809FA08F6B543BB
:100CA000274EB04202D1002610E03BE0254EB04274
:100CB00001D101260AE0244EB04201D1022605E00E
:100CC000224EB04201D1032600E0042606FA08F6BF
:100CD0002E43CCF808604D68DAF80060ED03554605
:100CE00001D51E4300E09E432E604D68DBF8006096
:100CF000AD035D4601D51E4300E09E432E604D6866
:100D0000DEF80060ED02754601D51E4300E09E430B
:100D10002E604D68AD020E4D2E6801D51E4300E0D9
:100D20009E432E60641C102CFFF444AFBDE8F88F86
:100D300000040140000011100010024000000140BA
:100D400000080140000C0140001001400014014067
:100D50000C04014001488068704700001800002022
:100D600002488168027811448160704718000020B1
:100D7000074810B5016841F010010160032000F040
:100D800073F8002000F006F800F024F8002010BDF1
:100D90000020024070B50D4D04464FF47A7128785A
:100DA000B1FBF0F00A490968B1FBF0F000F072FB0A
:100DB00048B9102C07D200222146501E00F034F80A
:100DC00000206C6070BD012070BD00001800002084
:100DD000240000200C4808B5816941F001018161BF
:100DE000816901F001010091C16941F08051C16147
:100DF000C06900F0805000900448416821F0E06133
:100E000041F00071416008BD001002400000014047
:100E100000F01F02012191404009800000F1E02014
:100E2000C0F8001170470000F0B40E4B1B680C4670
:100E3000C3F30223C3F10705042D00D90425191DAE
:100E4000072901D2002300E0DB1E012606FA05F186
:100E5000491E214099409E40761E16403143F0BC09
:100E600000F0F2BF0CED00E0064900F00702086850
:100E70004FF6FF03184040EA0220034A104308607F
:100E8000704700000CED00E00000FA052DE9F84382
:100E900005460078354CC00754D0E0690026C000F4
:100EA00008D4E06940F08050E061E069012600F07C
:100EB000805000902E480168C90512D40168804610
:100EC00041F480710160FFF745FF074605E000BF70
:100ED000FFF740FFC01B642823D8D8F80000C005E6
:100EE000F6D5206A10F4407021D0A98801F4407131
:100EF00081421CD0206A1F49012220F440700A6000
:100F000000220A602062C00711D0FFF723FF0746C6
:100F100041F2883808E000BFFFF71CFFC11B4145C4
:100F200002D90320BDE8F883206A8007F4D5206A3F
:100F3000696820F44070084320621EB1E06920F027
:100F40008050E0612878800705D56068A96820F4A2
:100F50004040084360602878C00605D56068E968AD
:100F600020F48000084360600020DBE700100240AE
:100F700000700040400442422DE9F047DFF8548100
:100F800005460E46D8F8000000F00700B0420CD22B
:100F9000D8F8001021F007013143C8F80010D8F844
:100FA000000000F00700B0426FD128684A4C81076A
:100FB00012D5400703D5606840F4E060606028788F
:100FC000000703D5606840F4605060606068A968FD
:100FD00020F0F000084360602878C00744D06868BB
:100FE000012816D02168022816D0890700294CDA7A
:100FF000616821F0030101436160FFF7ABFE69689E
:10100000074641F2883001290ED00229814618D0C6
:1010100026E021688903E9E78901E7E7FFF79AFEFF
:10102000C11B494501D918E081466068C0F38100C1
:101030000128F3D118E000BFFFF78CFEC11B494522
:101040000BD86068C0F381000228F5D10CE000BF26
:10105000FFF780FEC11B494502D90320BDE8F08798
:10106000606810F00C0FF3D1D8F80010404601F082
:101070000701B1420BD9016821F00701314301603A
:10108000006800F00700B04201D00120E6E72878B0
:10109000400705D56068E96820F4E06008436060B7
:1010A0002878000706D56068296920F4605040EA76
:1010B000C100606000F036F86168084AC1F30311AE
:1010C000515CC840064908600020FFF763FE00201D
:1010D000C4E700000020024000100240AC2E0008CF
:1010E000240000200448054900684968044AC1F307
:1010F0000221515CC84070472400002000100240CB
:10110000BC2E00080448054900684968044AC1F338
:10111000C221515CC84070472400002000100240EA
:10112000BC2E000812A185B00FC98DE80F0014A0D5
:10113000144A006804905168134801F00C03042B12
:1011400010D0082B0ED1C1F38343C9031DF803004F
:101150000AD5516804AAC1F34041515C0A4A504380
:10116000B0FBF1F005B0704708494843FAE70000CA
:1011700002030405060708090A0B0C0D0E0F1010D8
:10118000010200000010024000127A0000093D0038
:101190002DE9F84F04460078B94DC00748D068687B
:1011A000C0F38100012807D06868C0F381000228DD
:1011B00009D16868C00306D52868800338D56068FF
:1011C00000286FD034E06068B0F5803F0BD010B1DC
:1011D000B0F5A02F11D0286820F48030286028684E
:1011E00020F4802002E0286840F4803028606068A5
:1011F00088B1FFF7AFFD064609E0286840F480207B
:101200002860F0E7FFF7A6FD801B642875D82868E2
:101210008003F7D50CE0FFF79DFD064605E000BF13
:10122000FFF798FD801B6428F0D828688003F7D466
:101230002078944E80074FF001094FF000083BD50D
:10124000686810F00C0F07D06868C0F381000228AE
:1012500009D16868C00306D42868800714D52069BE
:1012600001281FD110E02069B0B1C6F80090FFF747
:1012700071FD074605E000BFFFF76CFDC01B0228AB
:10128000C4D828688007F7D52868616920F0F8007D
:1012900040EAC10028600FE0C6F80080FFF75AFD61
:1012A000074606E0E9E000BFFFF754FDC01B022837
:1012B00023D828688007F7D4207800072CD57248F7
:1012C000A169D9B1C0F80090FFF744FD074604E0DA
:1012D000FFF740FDC01B02280FD8686A8007F7D5CA
:1012E0006A484FF4FA510068B0FBF1F0009000BF7B
:1012F0000098411E0091FAD20EE080E0C0F8008014
:10130000FFF728FD074604E0FFF724FDC01B022875
:1013100075D8686A8007F7D42078400760D5E869F7
:101320000027C00008D4E86940F08050E861E8690F
:10133000012700F08050009055480168C90513D47A
:101340000168834641F480710160FFF703FD824626
:1013500006E000BFFFF7FEFCA0EB0A0064284ED8B1
:10136000DBF80000C005F5D5E06801280AD008B117
:10137000052813D0286A20F001002862286A20F08E
:10138000040002E0286A40F001002862E06841F2AF
:10139000883B98B1FFF7DEFC82460BE0286A40F0FC
:1013A00004002862EEE700BFFFF7D4FCA0EB0A01BF
:1013B00059455AD8286A8007F6D50CE0FFF7CAFCD1
:1013C000824605E0FFF7C6FCA0EB0A0159454CD860
:1013D000286A8007F6D41FB1E86920F08050E861E0
:1013E000E06988B36968C1F38101022945D0022808
:1013F000C6F8608004D0FFF7ADFC044638E034E066
:10140000FFF7A8FC074604E0FFF7A4FCC01B022876
:101410002BD828688001F7D4206AB0F5803F05D129
:101420006868A16820F4003008436860D4E90801C6
:101430000843696821F4741108436860C6F8609035
:10144000FFF788FC044606E015E000BFFFF782FCCA
:10145000001B022809D828688001F7D50BE000BFDF
:10146000FFF778FC001B022802D90320BDE8F88FA3
:1014700028688001F4D40020F8E70120F6E7000096
:10148000001002400000424280044242240000203A
:101490000070004010B5401EB0F1807F01D30120E4
:1014A00010BD4FF0E02460610F21601700F0CCFC0C
:1014B0000020A06107202061002010BD7047704708
:1014C00010B590F83C20012A25D0012280F83C205C
:1014D000CA688C6822F4407222434C6822F480620D
:1014E00022430C6822F4006222430C6922F48052E9
:1014F00022434C6922F4005222438C6922F4804238
:10150000224322F40041026800232143516480F801
:101510003C30002010BD022010BD30B590F83C20BA
:10152000012A20D0012280F83C20022380F83D309F
:1015300003685C6824F070045C6003685C680D6894
:101540002C435C6003689C6824F080049C60036802
:101550009C6849680C439C6080F83D20002180F81D
:101560003C10084630BD022030BD000070B5054675
:10157000007F144C022812D10421284600F0AFFA53
:10158000A06001202080297F022908D120B10021FC
:10159000284600F0A4FAE0602088401C20802088C3
:1015A00002280ED1D4E90201401A6421484340F6D2
:1015B000FF71B0FBF1F0FEF7BFFEC4E904010020AB
:1015C000208070BD000000202DE9F041044690F815
:1015D0003C000D4601283BD0012684F83C600220E7
:1015E00084F83D009AB3042A44D02068082A53D0D6
:1015F000D5E90027E968036A23F480530362D0F831
:101600001CC0036A2CF4407C4CEA07274FF6FF7C91
:1016100027F470470CEA01313943770323F4005370
:1016200007EA02321A43C16102622068C16921F4EB
:101630004061C1612068C169AA6841EA0221C161B3
:1016400084F83D60002084F83C00BDE8F08101E0B2
:101650000220FAE7D5E90012EB68206800F0A0FD4F
:101660002068816921F00C01816120688169AA6884
:1016700011430FE0D5E90012EB68206800F0CEFDC1
:101680002068816921F44061816120688169AA68CC
:1016900041EA02218161D3E7D5E9002C2F7B016A61
:1016A00021F480710162C169036A21F0030141EAFA
:1016B0000C0121F0F00C39074FF400774CEA11616E
:1016C00023F4007307EA02221A43C1610262206810
:1016D000C16921F00C01C1612068C169AA68114388
:1016E000ADE710B5040003D094F83D0010B107E059
:1016F000012010BD002084F83C00204600F00CF8CA
:10170000022084F83D00211D206800F00BFC012020
:1017100084F83D00002010BD00B585B00021009187
:101720000191029103910068B0F1804F1ED11048E1
:10173000C16941F00101C161C16901F00101049178
:10174000816941F0040181618069694600F004000B
:101750000490022000900748FFF71EFA002211466D
:101760001C20FFF761FB1C20FFF752FB05B000BDFA
:10177000001002400008014010B50268044631B173
:10178000042908D0082915D00C2908D116E0D06802
:1017900040F0020002E0D06840F00400D060012276
:1017A000206800F0F5FB2068016841F0010101604C
:1017B000002010BDD06840F00800EFE7D06840F08E
:1017C0001000EBE770B50446006801694FF00005B2
:1017D000C943890715D4C168C943890711D4E91ED3
:1017E000016101202077206880698007204602D0AF
:1017F000FFF7BCFE04E000F0BFF8204600F054F90B
:10180000257720680169C943490717D4C168C943CE
:10181000490713D46FF0040101610220207720688A
:10182000806910F4407F204602D0FFF79FFE04E05D
:1018300000F0A2F8204600F037F92577206801690A
:10184000C943090716D4C168C943090712D46FF008
:1018500008010161042020772068C06980072046C4
:1018600002D0FFF783FE04E000F086F8204600F087
:101870001BF9257720680169C943C90617D4C168D7
:10188000C943C90613D46FF0100101610820207705
:101890002068C06910F4407F204602D0FFF766FE42
:1018A00004E000F069F8204600F0FEF82577206893
:1018B0000169C943C90708D1C168C943C90704D12F
:1018C000891E0161204600F009F920680169C943B9
:1018D000090609D4C168C943090605D46FF080011F
:1018E00001612046FFF7EAFD20680169C943490606
:1018F00009D4C168C943490605D46FF040010161AC
:10190000204600F02FF920680169C94389060BD4ED
:10191000C168C943890607D46FF0200101612046E0
:10192000BDE87040FFF7CBBD70BD000000B585B0CD
:101930000021009101910291039100680B498842B6
:1019400012D10B48816941F00401816180696946C7
:1019500000F0040004904FF4807000900220019089
:1019600003900448FFF718F905B000BD002C0140B2
:101970000010024000080140704770B5044690F81E
:101980003C000D4601280DD0012684F83C60022061
:1019900084F83D0042B1042A18D0082A2AD00C2A23
:1019A0004DD139E0022070BD206800F007FB2068AF
:1019B000816941F0080181612068816921F0040199
:1019C0008161206881692A69114311E0206800F073
:1019D0001DFB2068816941F4006181612068816993
:1019E00021F480618161206881692A6941EA0221CC
:1019F000816124E0206800F035FB2068C16941F076
:101A00000801C1612068C16921F00401C161206839
:101A1000C1692A69114311E0206800F04FFB20687A
:101A2000C16941F40061C1612068C16921F480612C
:101A3000C1612068C1692A6941EA0221C16184F853
:101A40003D60002084F83C0070BD10B5040003D058
:101A500094F83D0010B107E0012010BD002084F88B
:101A60003C00204600F00CF8022084F83D00211DC7
:101A7000206800F057FA012084F83D00002010BDD6
:101A800008B500680649884208D10648816941F4D2
:101A900000618161806900F40060009008BD000071
:101AA000002C0140001002407047000010B50446B1
:101AB0000068012200F06CFA07492068884203D1CF
:101AC000416C41F4004141642068016841F001012A
:101AD0000160002010BD0000002C0140704790F80C
:101AE0003C300022012B0AD0012380F83C3041B168
:101AF000042909D008290AD00C290DD10AE00220B6
:101B0000704701684A6B07E001688A6B04E001686E
:101B1000CA6B01E001680A6C002180F83C10104695
:101B2000704770B5044690F83C00012818D0012594
:101B300084F83C50022084F83D00204600F0E0FA92
:101B40002068C16821F04001C1602068C16821F4AB
:101B50008041C16084F83D50002084F83C0070BD95
:101B6000022070BD704770B5040004D094F83900AD
:101B7000002510B106E0012070BD84F838502046E1
:101B800000F022F8242084F839002068C16821F48C
:101B90000051C160204600F05DFB2068016921F41E
:101BA000904101612068416921F02A01416120686A
:101BB000C16841F40051C160E563202084F8390018
:101BC00084F83A00002070BD30B585B00024009440
:101BD00001940294039400681449884224D1144863
:101BE000C16941F48021C161C16901F4802104917E
:101BF000816941F00801816180690E4D00F00800A3
:101C000004904FF480600090022001900320039024
:101C100069462846FEF7C0FFE814CDE9000469468E
:101C200028460294FEF7B8FF05B030BD00480040DA
:101C300000100240000C01402DE9F843044690F8E2
:101C400039001F4616460D46202850D1A5B19EB139
:101C500094F8380001284AD0012084F838004FF069
:101C60000008C4F83C80212084F83900FFF772F89E
:101C7000A6848146E68426E00120BDE8F883E08C56
:101C8000401EE084A0684B46B0F5805F4FF0000234
:101C90004FF080012046009703D000F093FBE8B995
:101CA0000DE000F08FFBC8B928882168C0F3080058
:101CB0004860206908B16D1C05E0AD1C03E0216897
:101CC00015F8010B4860E08C0028D8D14B46002263
:101CD00040212046009700F075FB08B10320CCE7B7
:101CE000202084F8390084F838800020C5E70220DD
:101CF000C3E7FEE73EB500240D48009401940B496C
:101D0000029401600125C0E90245446105614FF478
:101D100060214460C161FEF713FE0220CDE9000599
:101D2000694602940248FEF789FD3EBD0024014049
:101D30002800002010B590B000240E941C216846A5
:101D40000F94FEF706FA1C2107A8FEF702FA1B48BB
:101D50001949C0E9001440F6FF71C0E9024104616D
:101D600044618461FFF771FE0E940EA913480F942D
:101D7000FFF7D3FB6020009040F27F10CDE9010413
:101D8000039404940594002269460C480694FFF7D6
:101D9000F4FD0794089409944FF400500A94CDE997
:101DA0000B4007A905480D94FFF78AFB0348FFF78E
:101DB000BDFD10B010BD0000002C014058000020F7
:101DC00030B58BB0142104A8FEF7C3F900241C48D9
:101DD000009401940294039409944FF080410A9472
:101DE000C0E900144FF6FF71C0E90241046184614B
:101DF000FFF777FC0420049002256020CDE906540B
:101E0000059004A90E480894FFF78BFECDE9004524
:101E10000294002269460A480394FFF7D5FB01208B
:101E2000CDE90050042269460548FFF7CDFB09942F
:101E300009A903480A94FFF770FB0BB030BD0000FE
:101E400098000020FEE770470907090E002806DA0F
:101E500000F00F0000F1E02080F8141D704700F141
:101E6000E02080F80014704770477047FEF778BF95
:101E700030B593B028216846FEF76BF914210AA803
:101E8000FEF767F9002401200F94109411940104C7
:101E900012948DE8130004904FF4E010CDE908107F
:101EA000022507956846FFF773F90F20CDE90A056B
:101EB0006802CDE90C4002210AA80E94FFF75CF8F5
:101EC000A80311900F950FA8FEF7E0FF13B030BDE7
:101ED0000D48016841F00101016041680B4A114061
:101EE000416001680A4A11400160016821F48021C3
:101EF0000160416821F4FE0141604FF41F018160DF
:101F00000449C00308607047001002400000FFF859
:101F1000FFFFF6FE08ED00E00148FFF753BC0000AC
:101F200098000020F0B50268164B174C174D4FF083
:101F30008047984205D0B84203D0A04201D0A842C1
:101F400003D122F070064A683243984205D0B84265
:101F500003D0A04201D0A84203D122F44074CA6841
:101F6000224322F080044A69224302608A68C262E6
:101F70000A688262984201D10969016301214161C5
:101F8000F0BD0000002C01400004004000080040AB
:101F900010B50123046A8B409C430462036A8A40A3
:101FA0001343036210BD10B5846842EA032224F48F
:101FB0007F440A432243826010BD000030B5026AAC
:101FC00022F001020262026A4368846924F0730508
:101FD0000C682C4322F002058A682A430A4DA84265
:101FE0000BD122F00805CA6823F440732A434D69D7
:101FF00022F004021D438B692B43436084614968CE
:102000004163026230BD0000002C014030B5026A1D
:1020100022F010020262026A436884690D6824F4A7
:10202000E64444EA05248D6822F0200242EA0512C3
:102030000B4DA8420ED1CD6822F0800242EA051273
:102040004D6923F4406343EA85038D6922F0400221
:1020500043EA85034360846149688163026230BD5D
:10206000002C014030B5026A22F480720262036AD9
:102070004268C46923F4007324F073050C682C4390
:102080008D6843EA05230C4DA8420ED1CD6823F498
:10209000006343EA05234D6922F4405242EA0512E7
:1020A0008D6923F4806342EA05124260C461496885
:1020B000C163036230BD0000002C014030B5026AEC
:1020C00022F480520262046A4268C3690D6823F4F4
:1020D000E64343EA05238D6824F4005444EA0534BA
:1020E000064DA84204D14D6922F4804242EA85128D
:1020F0004260C36149680164046230BD002C014044
:1021000030B403689A6822F070044A68224322F0CF
:1021100007040A6822439A604A6812F00F0F1FD121
:102120001211082A1CD2DFE802F01B1B1B1B0B1D1F
:1021300023040B69D1E90221006830BCFFF733BFEB
:102140000268136A146A24F0010414620268946934
:10215000096924F0F00444EA011191610068036206
:1021600030BC70470A698968006830BC00F006B866
:102170000A698968006830BC00F03EB810B5036A8F
:10218000046A24F001040462846924F0F00444EA3F
:10219000021423F00A020A438461026210BD0000A7
:1021A00070B5046A24F0010404628469056A0F4E64
:1021B000B04208D0B0F1804F05D00D4EB04202D0F1
:1021C0000C4EB04203D124F00304144301E044F068
:1021D00001041A0724F0F00444EA126225F00A030D
:1021E00001F00A0119438261016270BD002C0140B7
:1021F000000400400008004010B5036A23F01003FB
:1022000003628369046A23F4704343EA023224F0D0
:10221000A00343EA01118261016210BD30B5046A76
:1022200024F0100404628469056A24F4407444EACA
:10223000022222F470444FF6FF7202EA0332224374
:10224000A02425F0A00304EA011119438261016270
:1022500030BD00002DE9F041044600680169E268E4
:1022600021F44051114301612169A068084361696B
:1022700008432168CA6841F20C639A430243CA606A
:1022800020684169A26921F44071114341614C49C0
:1022900020686425322688423CD1FEF733FF00EBEC
:1022A000C00101EB001061688900B0FBF1F7FEF797
:1022B00029FF00EBC00101EB00106168B046890006
:1022C000B0FBF1F0B0FBF5F06FF01801484307EBFD
:1022D000800106EB0110B0FBF5F000F0F006FEF710
:1022E00011FF00EBC00101EB001061688900B0FB39
:1022F000F1F0B0FBF5F006EB0016FEF703FF00EB84
:10230000C00101EB001061688900B0FBF1F7FEF736
:10231000F9FE3BE0FEF7E6FE00EBC00101EB00102A
:1023200061688900B0FBF1F7FEF7DCFE00EBC0014D
:1023300001EB00106168B0468900B0FBF1F0B0FB22
:10234000F5F06FF01801484307EB800106EB011030
:10235000B0FBF5F000F0F006FEF7C4FE00EBC001A4
:1023600001EB001061688900B0FBF1F0B0FBF5F003
:1023700006EB0016FEF7B6FE00EBC00101EB001005
:1023800061688900B0FBF1F7FEF7ACFE00EBC0011D
:1023900001EB001061688900B0FBF1F0B0FBF5F0D3
:1023A0006FF01801484307EB800108EB0110B0FB08
:1023B000F5F0216800F00F0030448860BDE8F0813E
:1023C000003801402DE9F041984617460E46044674
:1023D000069D1DE0681C1BD02DB1FEF7BBFCA0EBD9
:1023E0000800A84214D92068C16821F4D071C160E6
:1023F0002068416921F001014161202084F8390001
:1024000084F83A00002084F838000320BDE8F08109
:102410002068006836EA000004D00020B842D9D015
:102420000020F3E70120F9E7FEE700000FB4084BB6
:1024300010B504A902AA039800F0DEF8044602A928
:10244000002000F070FC204610BC5DF814FB00007A
:10245000272D000802E008C8121F08C1002AFAD17F
:1024600070477047002001E001C1121F002AFBD114
:10247000704700002DE9FF5F82B00021DDE90430E4
:10248000020DDDF840B0034318D044F61050A2F21C
:10249000FF3242431514119801281FD0A5EB0B0001
:1024A000401C5FEA000A4FF000064E4FDFF83891FB
:1024B000B046504615D5CAF1000413E01198012426
:1024C0004AA3012801D16FEA0B010298119AC0E9D1
:1024D0000031C0E9024206B0BDE8F09FCBF1000038
:1024E000DFE704460021404A491842EB0450CDE999
:1024F000001012E0E00707D032463B46404649460E
:10250000FDF739FE8046894632463B46104619465D
:10251000FDF731FE06460F466410002CEAD1DDE9D6
:102520000401DDE90023BAF1000F06DAFDF723FE0E
:1025300042464B46FDF71FFE05E0FDF78EFE424684
:102540004B46FDF78AFE04460E460022284BFEF756
:10255000C9F803D84FF0FF30014607E00022254BB1
:1025600020463146FDF7FFFFFEF7A4F8102409E0EE
:10257000002C0ADB0A220023FDF730FF039B3032D8
:102580001A55641E50EA0102F2D1641C039AC4F188
:1025900011031444119A012A03D0012208430DD1DA
:1025A0000AE0084304D000204FF0110B119072E7AD
:1025B000A3EB0B056D1E0DE05B4504DD4FF0000243
:1025C00005F1010504E003DA4FF00002A5F1010571
:1025D000002AECD002981199C0E90231C0E9004507
:1025E00079E70000000014400000F03F30000000D8
:1025F0000000F0430000E03F2DE9FF4F95B09B46FF
:102600008946064600250FE2252877D10024274673
:10261000F84A0121059400E0044316F8013F203BED
:1026200001FA03F01042F7D130782A2811D06FF068
:102630002F033078A0F13002092A16D8059A44F009
:10264000020402EB820203EB42021044761C059066
:10265000EFE759F8042B0592002A03DA504244F4BC
:102660000054059044F00204761C30782E2816D1D0
:1026700016F8010F44F004042A280DD06FF02F0241
:102680003078A0F13003092B09D807EB870302EB60
:102690004303C718761CF3E759F8047B761C30789F
:1026A0006C280FD006DC4C2817D068280DD06A287B
:1026B00014D104E0742810D07A280FD10DE044F42E
:1026C00000140AE044F4801401E044F440147278E9
:1026D000824202D104F58014761C761C307866287C
:1026E0000BD013DC582877D009DC002875D045289A
:1026F000F6D04628F4D047281AD19DE118E0632887
:1027000035D0642879D0652812D195E1702873D02E
:1027100008DC6728F1D069286FD06E280DD06F28AB
:1027200006D1B5E073282CD0752875D0782874D0E0
:102730005A46179990476D1C75E1C4F30250022860
:1027400009D003280DD0D9F8001004280DD00D6051
:1027500009F1040967E1D9F80010EA17C1E900524C
:10276000F6E7D9F800100D80F2E70D70F0E719F8E0
:10277000041B8DF8001000208DF80100EA460120AE
:1027800003E059F804AB4FF0FF3061074FF0000150
:1027900002D40DE008F101018846B9420FDA804504
:1027A000F8DB1AF808100029F4D108E008F101015B
:1027B00088468142FADB1AF808100029F6D10598FC
:1027C0005B46A0EB080721463846179A00F094FABA
:1027D000284400EB080507E04DE029E10DE01AF878
:1027E000010B5A4617999047B8F10108F7D25B469A
:1027F00021463846179A13E142E00A220092C4F3B8
:1028000002524FF0000A022A08D059F804CB032ADA
:102810004FEAEC710AD00DE029E02AE009F1070146
:1028200021F00702F2E802C1914609E00FFA8CFCA0
:102830004FEAEC71042A03D14FFA8CFC4FEAEC7199
:10284000002907DA0A460021DCF1000C61EB0201E5
:102850002D2202E0220504D52B228DF8042001222E
:1028600003E0E20701D02022F7E7904659E00A2171
:1028700002E010220DE010214FF0000A00910BE061
:1028800010224FF0000A44F004040827009203E0ED
:1028900008224FF0000A0092C4F30252022A05D027
:1028A00059F804CB0021032A08D009E009F10701F7
:1028B00021F00702F2E802C1914605E01FFA8CFC04
:1028C000042A01D10CF0FF0C4FF00008220728D594
:1028D000702806D0009B83F0100353EA0A0305D04A
:1028E0000EE040228DF80420012208E05CEA01029B
:1028F00006D030228DF804208DF805000222904683
:10290000009B83F0080353EA0A030AD15CEA010240
:1029100001D1620705D530228DF804204FF001085F
:102920007F1E582804D034A003900EA802900DE01A
:1029300036A0F9E753466046009AFDF74FFD8446FE
:102940000398825C0298401E029002705CEA0100CB
:10295000F0D1029806A9081A00F1200A600702D5F2
:1029600024F4803400E00127574502DDA7EB0A007C
:1029700000E0002000EB0A01009005984144401A55
:102980000590E00306D45B462146179A059800F0AF
:10299000B3F90544002706E001A85A46C05D17991F
:1029A00090476D1C7F1C4745F6DBE0030CD55B466A
:1029B0002146179A059800F09FF9054404E030205D
:1029C0005A46179990476D1C0099481E009000299F
:1029D000F5DC08E0029802995A460078491C0291F9
:1029E000179990476D1CBAF10001AAF1010AF1DCB8
:1029F00065E10000092801003031323334353637C3
:102A0000383961626364656600000000303132333A
:102A100034353637383941424344454600000000DA
:102A200000F058F90544761C307800287FF4ECADAE
:102A300019B02846BDE8F08F620700D4062709F1D7
:102A4000070222F0070CFCE80223E14603F00048ED
:102A50005FEA080C02D00FF2702C0DE05FEA045C14
:102A600002D50FF2682C07E05FEAC47C02D00FF2B7
:102A7000602C01E0AFF2700C4FF0FF3823F0004300
:102A8000CDF850C065280CD006DC452809D0462872
:102A90001DD047283DD13DE0662818D067287ED15B
:102AA00038E00021112F01DB112000E0781CCDE976
:102AB000000106A90EA8FFF7DDFCDDE90F010E9A63
:102AC00003910021009207F1010A04914DE04FF0BB
:102AD00000400097CDE9011006A90EA8FFF7CAFC37
:102AE000DDE90F0203920E9B11990022DDF80CA084
:102AF0000093049211B9791C00EB010AB7EB0A00AC
:102B000004D4C0F1FF3007F1010A0490AAEB0700DA
:102B1000019044E0012F00DA01270021112F01DD8F
:102B2000112000E03846CDE9000106A90EA8FFF704
:102B3000A1FCDDE90F010E9A03910021049100929E
:102B4000BA4621070CD40399514500DA8A46BAF1F6
:102B5000010F05DD009AAAF10101515C302908D06E
:102B6000B84202DA10F1040F06DA0121CDE90110B2
:102B700015E0AAF10101E9E7002805DC0499014408
:102B80000491AAEB000102E0411C514500DD8A4698
:102B90000499401A401C01904FF000400290200719
:102BA00004D40198504501DBCDF8048000208DF855
:102BB0004F0002980DF14F07B0F1004F25D02B20A8
:102BC0000E9002984FF0020800280CDA4042029062
:102BD0002D200E9007E00A210298FDF7E9FB303125
:102BE000029007F8011DB8F10001A8F10108F2DC1C
:102BF00002980028EFD1791E0E980870307800F006
:102C0000200040F0450007F8020D12A8C01B00F19B
:102C100007081498007800B1012000EB0A01019820
:102C200001EBE07105984144401A401E0590E00315
:102C300006D45B462146179A059800F05DF80544D6
:102C40001498007818B15A46179990476D1CE00304
:102C500024D55B462146179A059800F04DF80544A7
:102C60001CE00498002807DBDDE90301884203DD4E
:102C70000098405C179901E0179930205A46904718
:102C8000049805F10105401C04900198401E019034
:102C900004D12E205A46179990476D1CBAF10001B5
:102CA000AAF1010ADDDC05E017F8010B5A46179975
:102CB00090476D1CB8F10001A8F10108F4DC5B46F7
:102CC0002146179A0598ABE62D0000002B00000066
:102CD000200000002DE9F041044600251E4617465D
:102CE000880404D405E039462020B0476D1C641EDA
:102CF000F9D52846BDE8F0812DE9F04104460025CC
:102D00001E469046C80301D5302700E020278804DE
:102D100004D505E041463846B0476D1C641EF9D520
:102D20002846BDE8F0810A68531C0B60107070479C
:102D300008B5FEF71DF8FFF79BF84748816941F099
:102D400020018161816901F020010091816941F0D8
:102D500004018161816901F004010091816941F000
:102D600008018161806900F008000090FEF7C2FF51
:102D7000FEF7E0FFFFF724F8394838490C220160DC
:102D80004FF4E131416000218160C160C0E904126B
:102D90008161C161FEF7E7FE314800218038FEF70E
:102DA00085FE2F4800214038FEF7E6FC2C48042120
:102DB0004038FEF7E1FC2A48B038FDF77BFE294C8D
:102DC000294D2A4FDFF8A8804FF066364FF4FA6994
:102DD000608810B90020C4E904002148D4E9042324
:102DE00024A14030FFF722FB1D484030FDF7BCF91D
:102DF0001B4982B2032340311948FEF71DFF1848D2
:102E0000B038FDF799FD80B260802860FDF794FA34
:102E100032463B46FDF7AFF900224346FDF71DFA67
:102E2000FDF7AAFA6060FDF794FA02460C480B46DB
:102E300016A14030FFF7FAFA09484030FDF794F93F
:102E4000074982B2032340310548FEF7F5FE4846A4
:102E5000FDF790FEBCE70000001002400048004073
:102E6000D800002000000020342C014066660A4093
:102E700000FEAF4044757479206379636C65206906
:102E80007320252E32662025250D0A00416E616CC7
:102E90006F672076616C756520697320252E326618
:102EA00020566F6C74730D0A0000000000000000D3
:102EB00000000000010203040607080900000000EA
:102EC00001020304E42E0008000000202800000096
:102ED000542400080C2F00082800002010050000D2
:102EE0006424000800000000000000000000000052
:102EF00000000000000000000000000001000000D1
:0C2F0000100000000000000000A24A04C5
:04000005080000ED02
:00000001FF
